{
	"contracts/Types.sol": {
		"Types": {
			"abi": [
				{
					"inputs": [],
					"name": "getStatus",
					"outputs": [
						{
							"internalType": "uint8",
							"name": "",
							"type": "uint8"
						}
					],
					"stateMutability": "view",
					"type": "function"
				},
				{
					"inputs": [],
					"name": "newStatus",
					"outputs": [
						{
							"internalType": "enum Types.Status",
							"name": "",
							"type": "uint8"
						}
					],
					"stateMutability": "view",
					"type": "function"
				},
				{
					"inputs": [],
					"name": "status",
					"outputs": [
						{
							"internalType": "enum Types.Status",
							"name": "",
							"type": "uint8"
						}
					],
					"stateMutability": "view",
					"type": "function"
				},
				{
					"inputs": [],
					"name": "uInteger",
					"outputs": [
						{
							"internalType": "uint256",
							"name": "",
							"type": "uint256"
						}
					],
					"stateMutability": "view",
					"type": "function"
				}
			],
			"devdoc": {
				"kind": "dev",
				"methods": {},
				"stateVariables": {
					"iNumber": {
						"details": "The integer types can both accept negative values and postive number Default integer type is int256. Number ranges for integer types :  - 2 ^ (number - 1 ) -2^(31-1) = -2,147,483,648 to 2,147,483,647  eg: int8 can accept values from -128 to +127 => -2^(8-1) = -128 to 2^(8-1) 127"
					},
					"number": {
						"details": "Bytes types are only used to store fixed sized arrays of data. The size is specified using the array length keyword eg:bytes32[3] aBytesArray; Can't modified the length of the array after declaration one bytes = 8 bits "
					},
					"uInteger": {
						"details": "uint types can only accept postive number values Default uint type is uint256 Number ranges for uint types : 2 ^ number - 1 eg: uint8: 2^8 - 1 = 256 -1"
					}
				},
				"version": 1
			},
			"evm": {
				"assembly": "    /* \"contracts/Types.sol\":57:1469  contract Types {... */\n  mstore(0x40, 0x80)\n    /* \"contracts/Types.sol\":374:377  165 */\n  0xa5\n    /* \"contracts/Types.sol\":351:377  uint public uInteger = 165 */\n  0x00\n  sstore\n    /* \"contracts/Types.sol\":772:775  -73 */\n  0xffffffffffffffffffffffffffffffffffffffffffffffffffffffffffffffb7\n    /* \"contracts/Types.sol\":749:775  int8 private iNumber = -73 */\n  0x01\n  exp(0x0100, 0x00)\n  dup2\n  sload\n  dup2\n  0xff\n  mul\n  not\n  and\n  swap1\n  dup4\n  0x00\n  signextend\n  0xff\n  and\n  mul\n  or\n  swap1\n  sstore\n  pop\n    /* \"contracts/Types.sol\":1067:1086  bytes1 number = '1' */\n  0x3100000000000000000000000000000000000000000000000000000000000000\n  0x01\n  dup1\n  0x0100\n  exp\n  dup2\n  sload\n  dup2\n  0xff\n  mul\n  not\n  and\n  swap1\n  dup4\n  0xf8\n  shr\n  mul\n  or\n  swap1\n  sstore\n  pop\n    /* \"contracts/Types.sol\":1092:1114  bytes4 myByte = \"1111\" */\n  0x3131313100000000000000000000000000000000000000000000000000000000\n  0x01\n  exp(0x0100, 0x02)\n  dup2\n  sload\n  dup2\n  0xffffffff\n  mul\n  not\n  and\n  swap1\n  dup4\n  0xe0\n  shr\n  mul\n  or\n  swap1\n  sstore\n  pop\n    /* \"contracts/Types.sol\":1120:1147  bytes8 myBytes = \"11223344\" */\n  0x3131323233333434000000000000000000000000000000000000000000000000\n  0x01\n  exp(0x0100, 0x06)\n  dup2\n  sload\n  dup2\n  0xffffffffffffffff\n  mul\n  not\n  and\n  swap1\n  dup4\n  0xc0\n  shr\n  mul\n  or\n  swap1\n  sstore\n  pop\n    /* \"contracts/Types.sol\":1366:1375  Status.OK */\n  0x00\n    /* \"contracts/Types.sol\":1340:1375  Status public newStatus = Status.OK */\n  0x01\n  exp(0x0100, 0x0f)\n  dup2\n  sload\n  dup2\n  0xff\n  mul\n  not\n  and\n  swap1\n  dup4\n  0x01\n  dup2\n  gt\n  iszero\n  tag_1\n  jumpi\n  tag_2\n  tag_3\n  jump\t// in\ntag_2:\ntag_1:\n  mul\n  or\n  swap1\n  sstore\n  pop\n    /* \"contracts/Types.sol\":57:1469  contract Types {... */\n  callvalue\n  dup1\n  iszero\n  tag_4\n  jumpi\n  0x00\n  dup1\n  revert\ntag_4:\n  pop\n  jump(tag_5)\n    /* \"#utility.yul\":7:187   */\ntag_3:\n    /* \"#utility.yul\":55:132   */\n  0x4e487b7100000000000000000000000000000000000000000000000000000000\n    /* \"#utility.yul\":52:53   */\n  0x00\n    /* \"#utility.yul\":45:133   */\n  mstore\n    /* \"#utility.yul\":152:156   */\n  0x21\n    /* \"#utility.yul\":149:150   */\n  0x04\n    /* \"#utility.yul\":142:157   */\n  mstore\n    /* \"#utility.yul\":176:180   */\n  0x24\n    /* \"#utility.yul\":173:174   */\n  0x00\n    /* \"#utility.yul\":166:181   */\n  revert\n    /* \"contracts/Types.sol\":57:1469  contract Types {... */\ntag_5:\n  dataSize(sub_0)\n  dup1\n  dataOffset(sub_0)\n  0x00\n  codecopy\n  0x00\n  return\nstop\n\nsub_0: assembly {\n        /* \"contracts/Types.sol\":57:1469  contract Types {... */\n      mstore(0x40, 0x80)\n      callvalue\n      dup1\n      iszero\n      tag_1\n      jumpi\n      0x00\n      dup1\n      revert\n    tag_1:\n      pop\n      jumpi(tag_2, lt(calldatasize, 0x04))\n      shr(0xe0, calldataload(0x00))\n      dup1\n      0x200d2ed2\n      eq\n      tag_3\n      jumpi\n      dup1\n      0x405da7a2\n      eq\n      tag_4\n      jumpi\n      dup1\n      0x4e69d560\n      eq\n      tag_5\n      jumpi\n      dup1\n      0xec907aa9\n      eq\n      tag_6\n      jumpi\n    tag_2:\n      0x00\n      dup1\n      revert\n        /* \"contracts/Types.sol\":1314:1334  Status public status */\n    tag_3:\n      tag_7\n      tag_8\n      jump\t// in\n    tag_7:\n      mload(0x40)\n      tag_9\n      swap2\n      swap1\n      tag_10\n      jump\t// in\n    tag_9:\n      mload(0x40)\n      dup1\n      swap2\n      sub\n      swap1\n      return\n        /* \"contracts/Types.sol\":351:377  uint public uInteger = 165 */\n    tag_4:\n      tag_11\n      tag_12\n      jump\t// in\n    tag_11:\n      mload(0x40)\n      tag_13\n      swap2\n      swap1\n      tag_14\n      jump\t// in\n    tag_13:\n      mload(0x40)\n      dup1\n      swap2\n      sub\n      swap1\n      return\n        /* \"contracts/Types.sol\":1382:1467  function getStatus() public view returns(uint8) {... */\n    tag_5:\n      tag_15\n      tag_16\n      jump\t// in\n    tag_15:\n      mload(0x40)\n      tag_17\n      swap2\n      swap1\n      tag_18\n      jump\t// in\n    tag_17:\n      mload(0x40)\n      dup1\n      swap2\n      sub\n      swap1\n      return\n        /* \"contracts/Types.sol\":1340:1375  Status public newStatus = Status.OK */\n    tag_6:\n      tag_19\n      tag_20\n      jump\t// in\n    tag_19:\n      mload(0x40)\n      tag_21\n      swap2\n      swap1\n      tag_10\n      jump\t// in\n    tag_21:\n      mload(0x40)\n      dup1\n      swap2\n      sub\n      swap1\n      return\n        /* \"contracts/Types.sol\":1314:1334  Status public status */\n    tag_8:\n      0x01\n      0x0e\n      swap1\n      sload\n      swap1\n      0x0100\n      exp\n      swap1\n      div\n      0xff\n      and\n      dup2\n      jump\t// out\n        /* \"contracts/Types.sol\":351:377  uint public uInteger = 165 */\n    tag_12:\n      sload(0x00)\n      dup2\n      jump\t// out\n        /* \"contracts/Types.sol\":1382:1467  function getStatus() public view returns(uint8) {... */\n    tag_16:\n        /* \"contracts/Types.sol\":1423:1428  uint8 */\n      0x00\n        /* \"contracts/Types.sol\":1453:1459  status */\n      0x01\n      0x0e\n      swap1\n      sload\n      swap1\n      0x0100\n      exp\n      swap1\n      div\n      0xff\n      and\n        /* \"contracts/Types.sol\":1447:1460  uint8(status) */\n      0x01\n      dup2\n      gt\n      iszero\n      tag_23\n      jumpi\n      tag_24\n      tag_25\n      jump\t// in\n    tag_24:\n    tag_23:\n        /* \"contracts/Types.sol\":1440:1460  return uint8(status) */\n      swap1\n      pop\n        /* \"contracts/Types.sol\":1382:1467  function getStatus() public view returns(uint8) {... */\n      swap1\n      jump\t// out\n        /* \"contracts/Types.sol\":1340:1375  Status public newStatus = Status.OK */\n    tag_20:\n      0x01\n      0x0f\n      swap1\n      sload\n      swap1\n      0x0100\n      exp\n      swap1\n      div\n      0xff\n      and\n      dup2\n      jump\t// out\n        /* \"#utility.yul\":7:187   */\n    tag_25:\n        /* \"#utility.yul\":55:132   */\n      0x4e487b7100000000000000000000000000000000000000000000000000000000\n        /* \"#utility.yul\":52:53   */\n      0x00\n        /* \"#utility.yul\":45:133   */\n      mstore\n        /* \"#utility.yul\":152:156   */\n      0x21\n        /* \"#utility.yul\":149:150   */\n      0x04\n        /* \"#utility.yul\":142:157   */\n      mstore\n        /* \"#utility.yul\":176:180   */\n      0x24\n        /* \"#utility.yul\":173:174   */\n      0x00\n        /* \"#utility.yul\":166:181   */\n      revert\n        /* \"#utility.yul\":193:307   */\n    tag_26:\n        /* \"#utility.yul\":275:276   */\n      0x02\n        /* \"#utility.yul\":268:273   */\n      dup2\n        /* \"#utility.yul\":265:277   */\n      lt\n        /* \"#utility.yul\":255:301   */\n      tag_37\n      jumpi\n        /* \"#utility.yul\":281:299   */\n      tag_38\n      tag_25\n      jump\t// in\n    tag_38:\n        /* \"#utility.yul\":255:301   */\n    tag_37:\n        /* \"#utility.yul\":193:307   */\n      pop\n      jump\t// out\n        /* \"#utility.yul\":313:442   */\n    tag_27:\n        /* \"#utility.yul\":359:366   */\n      0x00\n        /* \"#utility.yul\":388:393   */\n      dup2\n        /* \"#utility.yul\":377:393   */\n      swap1\n      pop\n        /* \"#utility.yul\":394:436   */\n      tag_40\n        /* \"#utility.yul\":430:435   */\n      dup3\n        /* \"#utility.yul\":394:436   */\n      tag_26\n      jump\t// in\n    tag_40:\n        /* \"#utility.yul\":313:442   */\n      swap2\n      swap1\n      pop\n      jump\t// out\n        /* \"#utility.yul\":448:577   */\n    tag_28:\n        /* \"#utility.yul\":505:514   */\n      0x00\n        /* \"#utility.yul\":538:571   */\n      tag_42\n        /* \"#utility.yul\":565:570   */\n      dup3\n        /* \"#utility.yul\":538:571   */\n      tag_27\n      jump\t// in\n    tag_42:\n        /* \"#utility.yul\":525:571   */\n      swap1\n      pop\n        /* \"#utility.yul\":448:577   */\n      swap2\n      swap1\n      pop\n      jump\t// out\n        /* \"#utility.yul\":583:728   */\n    tag_29:\n        /* \"#utility.yul\":677:721   */\n      tag_44\n        /* \"#utility.yul\":715:720   */\n      dup2\n        /* \"#utility.yul\":677:721   */\n      tag_28\n      jump\t// in\n    tag_44:\n        /* \"#utility.yul\":672:675   */\n      dup3\n        /* \"#utility.yul\":665:722   */\n      mstore\n        /* \"#utility.yul\":583:728   */\n      pop\n      pop\n      jump\t// out\n        /* \"#utility.yul\":734:970   */\n    tag_10:\n        /* \"#utility.yul\":834:838   */\n      0x00\n        /* \"#utility.yul\":872:874   */\n      0x20\n        /* \"#utility.yul\":861:870   */\n      dup3\n        /* \"#utility.yul\":857:875   */\n      add\n        /* \"#utility.yul\":849:875   */\n      swap1\n      pop\n        /* \"#utility.yul\":885:963   */\n      tag_46\n        /* \"#utility.yul\":960:961   */\n      0x00\n        /* \"#utility.yul\":949:958   */\n      dup4\n        /* \"#utility.yul\":945:962   */\n      add\n        /* \"#utility.yul\":936:942   */\n      dup5\n        /* \"#utility.yul\":885:963   */\n      tag_29\n      jump\t// in\n    tag_46:\n        /* \"#utility.yul\":734:970   */\n      swap3\n      swap2\n      pop\n      pop\n      jump\t// out\n        /* \"#utility.yul\":976:1053   */\n    tag_30:\n        /* \"#utility.yul\":1013:1020   */\n      0x00\n        /* \"#utility.yul\":1042:1047   */\n      dup2\n        /* \"#utility.yul\":1031:1047   */\n      swap1\n      pop\n        /* \"#utility.yul\":976:1053   */\n      swap2\n      swap1\n      pop\n      jump\t// out\n        /* \"#utility.yul\":1059:1177   */\n    tag_31:\n        /* \"#utility.yul\":1146:1170   */\n      tag_49\n        /* \"#utility.yul\":1164:1169   */\n      dup2\n        /* \"#utility.yul\":1146:1170   */\n      tag_30\n      jump\t// in\n    tag_49:\n        /* \"#utility.yul\":1141:1144   */\n      dup3\n        /* \"#utility.yul\":1134:1171   */\n      mstore\n        /* \"#utility.yul\":1059:1177   */\n      pop\n      pop\n      jump\t// out\n        /* \"#utility.yul\":1183:1405   */\n    tag_14:\n        /* \"#utility.yul\":1276:1280   */\n      0x00\n        /* \"#utility.yul\":1314:1316   */\n      0x20\n        /* \"#utility.yul\":1303:1312   */\n      dup3\n        /* \"#utility.yul\":1299:1317   */\n      add\n        /* \"#utility.yul\":1291:1317   */\n      swap1\n      pop\n        /* \"#utility.yul\":1327:1398   */\n      tag_51\n        /* \"#utility.yul\":1395:1396   */\n      0x00\n        /* \"#utility.yul\":1384:1393   */\n      dup4\n        /* \"#utility.yul\":1380:1397   */\n      add\n        /* \"#utility.yul\":1371:1377   */\n      dup5\n        /* \"#utility.yul\":1327:1398   */\n      tag_31\n      jump\t// in\n    tag_51:\n        /* \"#utility.yul\":1183:1405   */\n      swap3\n      swap2\n      pop\n      pop\n      jump\t// out\n        /* \"#utility.yul\":1411:1497   */\n    tag_32:\n        /* \"#utility.yul\":1446:1453   */\n      0x00\n        /* \"#utility.yul\":1486:1490   */\n      0xff\n        /* \"#utility.yul\":1479:1484   */\n      dup3\n        /* \"#utility.yul\":1475:1491   */\n      and\n        /* \"#utility.yul\":1464:1491   */\n      swap1\n      pop\n        /* \"#utility.yul\":1411:1497   */\n      swap2\n      swap1\n      pop\n      jump\t// out\n        /* \"#utility.yul\":1503:1615   */\n    tag_33:\n        /* \"#utility.yul\":1586:1608   */\n      tag_54\n        /* \"#utility.yul\":1602:1607   */\n      dup2\n        /* \"#utility.yul\":1586:1608   */\n      tag_32\n      jump\t// in\n    tag_54:\n        /* \"#utility.yul\":1581:1584   */\n      dup3\n        /* \"#utility.yul\":1574:1609   */\n      mstore\n        /* \"#utility.yul\":1503:1615   */\n      pop\n      pop\n      jump\t// out\n        /* \"#utility.yul\":1621:1835   */\n    tag_18:\n        /* \"#utility.yul\":1710:1714   */\n      0x00\n        /* \"#utility.yul\":1748:1750   */\n      0x20\n        /* \"#utility.yul\":1737:1746   */\n      dup3\n        /* \"#utility.yul\":1733:1751   */\n      add\n        /* \"#utility.yul\":1725:1751   */\n      swap1\n      pop\n        /* \"#utility.yul\":1761:1828   */\n      tag_56\n        /* \"#utility.yul\":1825:1826   */\n      0x00\n        /* \"#utility.yul\":1814:1823   */\n      dup4\n        /* \"#utility.yul\":1810:1827   */\n      add\n        /* \"#utility.yul\":1801:1807   */\n      dup5\n        /* \"#utility.yul\":1761:1828   */\n      tag_33\n      jump\t// in\n    tag_56:\n        /* \"#utility.yul\":1621:1835   */\n      swap3\n      swap2\n      pop\n      pop\n      jump\t// out\n\n    auxdata: 0xa2646970667358221220c1c228c293d790491e1ee1272ab2991cecab33071b1aaac8e184692dfeafb9ad64736f6c634300081a0033\n}\n",
				"bytecode": {
					"linkReferences": {},
					"object": "608060405260a55f557fffffffffffffffffffffffffffffffffffffffffffffffffffffffffffffffb760015f6101000a81548160ff02191690835f0b60ff1602179055507f31000000000000000000000000000000000000000000000000000000000000006001806101000a81548160ff021916908360f81c02179055507f3131313100000000000000000000000000000000000000000000000000000000600160026101000a81548163ffffffff021916908360e01c02179055507f3131323233333434000000000000000000000000000000000000000000000000600160066101000a81548167ffffffffffffffff021916908360c01c02179055505f6001600f6101000a81548160ff0219169083600181111561012357610122610139565b5b0217905550348015610133575f80fd5b50610166565b7f4e487b71000000000000000000000000000000000000000000000000000000005f52602160045260245ffd5b610240806101735f395ff3fe608060405234801561000f575f80fd5b506004361061004a575f3560e01c8063200d2ed21461004e578063405da7a21461006c5780634e69d5601461008a578063ec907aa9146100a8575b5f80fd5b6100566100c6565b604051610063919061018c565b60405180910390f35b6100746100d9565b60405161008191906101bd565b60405180910390f35b6100926100de565b60405161009f91906101f1565b60405180910390f35b6100b0610106565b6040516100bd919061018c565b60405180910390f35b6001600e9054906101000a900460ff1681565b5f5481565b5f6001600e9054906101000a900460ff16600181111561010157610100610119565b5b905090565b6001600f9054906101000a900460ff1681565b7f4e487b71000000000000000000000000000000000000000000000000000000005f52602160045260245ffd5b6002811061015757610156610119565b5b50565b5f81905061016782610146565b919050565b5f6101768261015a565b9050919050565b6101868161016c565b82525050565b5f60208201905061019f5f83018461017d565b92915050565b5f819050919050565b6101b7816101a5565b82525050565b5f6020820190506101d05f8301846101ae565b92915050565b5f60ff82169050919050565b6101eb816101d6565b82525050565b5f6020820190506102045f8301846101e2565b9291505056fea2646970667358221220c1c228c293d790491e1ee1272ab2991cecab33071b1aaac8e184692dfeafb9ad64736f6c634300081a0033",
					"opcodes": "PUSH1 0x80 PUSH1 0x40 MSTORE PUSH1 0xA5 PUSH0 SSTORE PUSH32 0xFFFFFFFFFFFFFFFFFFFFFFFFFFFFFFFFFFFFFFFFFFFFFFFFFFFFFFFFFFFFFFB7 PUSH1 0x1 PUSH0 PUSH2 0x100 EXP DUP2 SLOAD DUP2 PUSH1 0xFF MUL NOT AND SWAP1 DUP4 PUSH0 SIGNEXTEND PUSH1 0xFF AND MUL OR SWAP1 SSTORE POP PUSH32 0x3100000000000000000000000000000000000000000000000000000000000000 PUSH1 0x1 DUP1 PUSH2 0x100 EXP DUP2 SLOAD DUP2 PUSH1 0xFF MUL NOT AND SWAP1 DUP4 PUSH1 0xF8 SHR MUL OR SWAP1 SSTORE POP PUSH32 0x3131313100000000000000000000000000000000000000000000000000000000 PUSH1 0x1 PUSH1 0x2 PUSH2 0x100 EXP DUP2 SLOAD DUP2 PUSH4 0xFFFFFFFF MUL NOT AND SWAP1 DUP4 PUSH1 0xE0 SHR MUL OR SWAP1 SSTORE POP PUSH32 0x3131323233333434000000000000000000000000000000000000000000000000 PUSH1 0x1 PUSH1 0x6 PUSH2 0x100 EXP DUP2 SLOAD DUP2 PUSH8 0xFFFFFFFFFFFFFFFF MUL NOT AND SWAP1 DUP4 PUSH1 0xC0 SHR MUL OR SWAP1 SSTORE POP PUSH0 PUSH1 0x1 PUSH1 0xF PUSH2 0x100 EXP DUP2 SLOAD DUP2 PUSH1 0xFF MUL NOT AND SWAP1 DUP4 PUSH1 0x1 DUP2 GT ISZERO PUSH2 0x123 JUMPI PUSH2 0x122 PUSH2 0x139 JUMP JUMPDEST JUMPDEST MUL OR SWAP1 SSTORE POP CALLVALUE DUP1 ISZERO PUSH2 0x133 JUMPI PUSH0 DUP1 REVERT JUMPDEST POP PUSH2 0x166 JUMP JUMPDEST PUSH32 0x4E487B7100000000000000000000000000000000000000000000000000000000 PUSH0 MSTORE PUSH1 0x21 PUSH1 0x4 MSTORE PUSH1 0x24 PUSH0 REVERT JUMPDEST PUSH2 0x240 DUP1 PUSH2 0x173 PUSH0 CODECOPY PUSH0 RETURN INVALID PUSH1 0x80 PUSH1 0x40 MSTORE CALLVALUE DUP1 ISZERO PUSH2 0xF JUMPI PUSH0 DUP1 REVERT JUMPDEST POP PUSH1 0x4 CALLDATASIZE LT PUSH2 0x4A JUMPI PUSH0 CALLDATALOAD PUSH1 0xE0 SHR DUP1 PUSH4 0x200D2ED2 EQ PUSH2 0x4E JUMPI DUP1 PUSH4 0x405DA7A2 EQ PUSH2 0x6C JUMPI DUP1 PUSH4 0x4E69D560 EQ PUSH2 0x8A JUMPI DUP1 PUSH4 0xEC907AA9 EQ PUSH2 0xA8 JUMPI JUMPDEST PUSH0 DUP1 REVERT JUMPDEST PUSH2 0x56 PUSH2 0xC6 JUMP JUMPDEST PUSH1 0x40 MLOAD PUSH2 0x63 SWAP2 SWAP1 PUSH2 0x18C JUMP JUMPDEST PUSH1 0x40 MLOAD DUP1 SWAP2 SUB SWAP1 RETURN JUMPDEST PUSH2 0x74 PUSH2 0xD9 JUMP JUMPDEST PUSH1 0x40 MLOAD PUSH2 0x81 SWAP2 SWAP1 PUSH2 0x1BD JUMP JUMPDEST PUSH1 0x40 MLOAD DUP1 SWAP2 SUB SWAP1 RETURN JUMPDEST PUSH2 0x92 PUSH2 0xDE JUMP JUMPDEST PUSH1 0x40 MLOAD PUSH2 0x9F SWAP2 SWAP1 PUSH2 0x1F1 JUMP JUMPDEST PUSH1 0x40 MLOAD DUP1 SWAP2 SUB SWAP1 RETURN JUMPDEST PUSH2 0xB0 PUSH2 0x106 JUMP JUMPDEST PUSH1 0x40 MLOAD PUSH2 0xBD SWAP2 SWAP1 PUSH2 0x18C JUMP JUMPDEST PUSH1 0x40 MLOAD DUP1 SWAP2 SUB SWAP1 RETURN JUMPDEST PUSH1 0x1 PUSH1 0xE SWAP1 SLOAD SWAP1 PUSH2 0x100 EXP SWAP1 DIV PUSH1 0xFF AND DUP2 JUMP JUMPDEST PUSH0 SLOAD DUP2 JUMP JUMPDEST PUSH0 PUSH1 0x1 PUSH1 0xE SWAP1 SLOAD SWAP1 PUSH2 0x100 EXP SWAP1 DIV PUSH1 0xFF AND PUSH1 0x1 DUP2 GT ISZERO PUSH2 0x101 JUMPI PUSH2 0x100 PUSH2 0x119 JUMP JUMPDEST JUMPDEST SWAP1 POP SWAP1 JUMP JUMPDEST PUSH1 0x1 PUSH1 0xF SWAP1 SLOAD SWAP1 PUSH2 0x100 EXP SWAP1 DIV PUSH1 0xFF AND DUP2 JUMP JUMPDEST PUSH32 0x4E487B7100000000000000000000000000000000000000000000000000000000 PUSH0 MSTORE PUSH1 0x21 PUSH1 0x4 MSTORE PUSH1 0x24 PUSH0 REVERT JUMPDEST PUSH1 0x2 DUP2 LT PUSH2 0x157 JUMPI PUSH2 0x156 PUSH2 0x119 JUMP JUMPDEST JUMPDEST POP JUMP JUMPDEST PUSH0 DUP2 SWAP1 POP PUSH2 0x167 DUP3 PUSH2 0x146 JUMP JUMPDEST SWAP2 SWAP1 POP JUMP JUMPDEST PUSH0 PUSH2 0x176 DUP3 PUSH2 0x15A JUMP JUMPDEST SWAP1 POP SWAP2 SWAP1 POP JUMP JUMPDEST PUSH2 0x186 DUP2 PUSH2 0x16C JUMP JUMPDEST DUP3 MSTORE POP POP JUMP JUMPDEST PUSH0 PUSH1 0x20 DUP3 ADD SWAP1 POP PUSH2 0x19F PUSH0 DUP4 ADD DUP5 PUSH2 0x17D JUMP JUMPDEST SWAP3 SWAP2 POP POP JUMP JUMPDEST PUSH0 DUP2 SWAP1 POP SWAP2 SWAP1 POP JUMP JUMPDEST PUSH2 0x1B7 DUP2 PUSH2 0x1A5 JUMP JUMPDEST DUP3 MSTORE POP POP JUMP JUMPDEST PUSH0 PUSH1 0x20 DUP3 ADD SWAP1 POP PUSH2 0x1D0 PUSH0 DUP4 ADD DUP5 PUSH2 0x1AE JUMP JUMPDEST SWAP3 SWAP2 POP POP JUMP JUMPDEST PUSH0 PUSH1 0xFF DUP3 AND SWAP1 POP SWAP2 SWAP1 POP JUMP JUMPDEST PUSH2 0x1EB DUP2 PUSH2 0x1D6 JUMP JUMPDEST DUP3 MSTORE POP POP JUMP JUMPDEST PUSH0 PUSH1 0x20 DUP3 ADD SWAP1 POP PUSH2 0x204 PUSH0 DUP4 ADD DUP5 PUSH2 0x1E2 JUMP JUMPDEST SWAP3 SWAP2 POP POP JUMP INVALID LOG2 PUSH5 0x6970667358 0x22 SLT KECCAK256 0xC1 0xC2 0x28 0xC2 SWAP4 0xD7 SWAP1 BLOBHASH 0x1E 0x1E 0xE1 0x27 0x2A 0xB2 SWAP10 SHR 0xEC 0xAB CALLER SMOD SHL BYTE 0xAA 0xC8 0xE1 DUP5 PUSH10 0x2DFEAFB9AD64736F6C63 NUMBER STOP ADDMOD BYTE STOP CALLER "
				},
				"gasEstimates": {
					"creation": {
						"codeDepositCost": "115200",
						"executionCost": "143834",
						"totalCost": "259034"
					},
					"external": {
						"getStatus()": "2572",
						"newStatus()": "2649",
						"status()": "2583",
						"uInteger()": "2424"
					}
				},
				"methodIdentifiers": {
					"getStatus()": "4e69d560",
					"newStatus()": "ec907aa9",
					"status()": "200d2ed2",
					"uInteger()": "405da7a2"
				}
			},
			"storageLayout": {
				"storage": [
					{
						"astId": 5,
						"contract": "contracts/Types.sol:Types",
						"label": "uInteger",
						"offset": 0,
						"slot": "0",
						"type": "t_uint256"
					},
					{
						"astId": 10,
						"contract": "contracts/Types.sol:Types",
						"label": "iNumber",
						"offset": 0,
						"slot": "1",
						"type": "t_int8"
					},
					{
						"astId": 14,
						"contract": "contracts/Types.sol:Types",
						"label": "number",
						"offset": 1,
						"slot": "1",
						"type": "t_bytes1"
					},
					{
						"astId": 17,
						"contract": "contracts/Types.sol:Types",
						"label": "myByte",
						"offset": 2,
						"slot": "1",
						"type": "t_bytes4"
					},
					{
						"astId": 20,
						"contract": "contracts/Types.sol:Types",
						"label": "myBytes",
						"offset": 6,
						"slot": "1",
						"type": "t_bytes8"
					},
					{
						"astId": 27,
						"contract": "contracts/Types.sol:Types",
						"label": "status",
						"offset": 14,
						"slot": "1",
						"type": "t_enum(Status)24"
					},
					{
						"astId": 32,
						"contract": "contracts/Types.sol:Types",
						"label": "newStatus",
						"offset": 15,
						"slot": "1",
						"type": "t_enum(Status)24"
					}
				],
				"types": {
					"t_bytes1": {
						"encoding": "inplace",
						"label": "bytes1",
						"numberOfBytes": "1"
					},
					"t_bytes4": {
						"encoding": "inplace",
						"label": "bytes4",
						"numberOfBytes": "4"
					},
					"t_bytes8": {
						"encoding": "inplace",
						"label": "bytes8",
						"numberOfBytes": "8"
					},
					"t_enum(Status)24": {
						"encoding": "inplace",
						"label": "enum Types.Status",
						"numberOfBytes": "1"
					},
					"t_int8": {
						"encoding": "inplace",
						"label": "int8",
						"numberOfBytes": "1"
					},
					"t_uint256": {
						"encoding": "inplace",
						"label": "uint256",
						"numberOfBytes": "32"
					}
				}
			},
			"userdoc": {
				"kind": "user",
				"methods": {},
				"version": 1
			}
		}
	}
}