{
	"contracts/Storage.sol": {
		"Functions": {
			"abi": [
				{
					"inputs": [
						{
							"internalType": "bytes",
							"name": "data",
							"type": "bytes"
						}
					],
					"name": "bytesToString",
					"outputs": [
						{
							"internalType": "string",
							"name": "",
							"type": "string"
						}
					],
					"stateMutability": "pure",
					"type": "function"
				},
				{
					"inputs": [],
					"name": "getCallDataDetails",
					"outputs": [
						{
							"internalType": "bytes",
							"name": "fullCallData",
							"type": "bytes"
						}
					],
					"stateMutability": "pure",
					"type": "function"
				}
			],
			"devdoc": {
				"kind": "dev",
				"methods": {},
				"version": 1
			},
			"evm": {
				"assembly": "    /* \"contracts/Storage.sol\":57:782  contract Functions {... */\n  mstore(0x40, 0x80)\n  callvalue\n  dup1\n  iszero\n  tag_1\n  jumpi\n  0x00\n  dup1\n  revert\ntag_1:\n  pop\n  dataSize(sub_0)\n  dup1\n  dataOffset(sub_0)\n  0x00\n  codecopy\n  0x00\n  return\nstop\n\nsub_0: assembly {\n        /* \"contracts/Storage.sol\":57:782  contract Functions {... */\n      mstore(0x40, 0x80)\n      callvalue\n      dup1\n      iszero\n      tag_1\n      jumpi\n      0x00\n      dup1\n      revert\n    tag_1:\n      pop\n      jumpi(tag_2, lt(calldatasize, 0x04))\n      shr(0xe0, calldataload(0x00))\n      dup1\n      0x1532ee84\n      eq\n      tag_3\n      jumpi\n      dup1\n      0x39614e4f\n      eq\n      tag_4\n      jumpi\n    tag_2:\n      0x00\n      dup1\n      revert\n        /* \"contracts/Storage.sol\":83:599  function getCallDataDetails() external pure returns (... */\n    tag_3:\n      tag_5\n      tag_6\n      jump\t// in\n    tag_5:\n      mload(0x40)\n      tag_7\n      swap2\n      swap1\n      tag_8\n      jump\t// in\n    tag_7:\n      mload(0x40)\n      dup1\n      swap2\n      sub\n      swap1\n      return\n        /* \"contracts/Storage.sol\":666:780  function bytesToString(bytes memory data) public pure returns (string memory) {... */\n    tag_4:\n      tag_9\n      0x04\n      dup1\n      calldatasize\n      sub\n      dup2\n      add\n      swap1\n      tag_10\n      swap2\n      swap1\n      tag_11\n      jump\t// in\n    tag_10:\n      tag_12\n      jump\t// in\n    tag_9:\n      mload(0x40)\n      tag_13\n      swap2\n      swap1\n      tag_14\n      jump\t// in\n    tag_13:\n      mload(0x40)\n      dup1\n      swap2\n      sub\n      swap1\n      return\n        /* \"contracts/Storage.sol\":83:599  function getCallDataDetails() external pure returns (... */\n    tag_6:\n        /* \"contracts/Storage.sol\":145:170  bytes memory fullCallData */\n      0x60\n        /* \"contracts/Storage.sol\":244:252  msg.data */\n      0x00\n      calldatasize\n        /* \"contracts/Storage.sol\":229:252  fullCallData = msg.data */\n      dup1\n      dup1\n      0x1f\n      add\n      0x20\n      dup1\n      swap2\n      div\n      mul\n      0x20\n      add\n      mload(0x40)\n      swap1\n      dup2\n      add\n      0x40\n      mstore\n      dup1\n      swap4\n      swap3\n      swap2\n      swap1\n      dup2\n      dup2\n      mstore\n      0x20\n      add\n      dup4\n      dup4\n      dup1\n      dup3\n      dup5\n      calldatacopy\n      0x00\n      dup2\n      dup5\n      add\n      mstore\n      not(0x1f)\n      0x1f\n      dup3\n      add\n      and\n      swap1\n      pop\n      dup1\n      dup4\n      add\n      swap3\n      pop\n      pop\n      pop\n      pop\n      pop\n      pop\n      pop\n      swap1\n      pop\n        /* \"contracts/Storage.sol\":83:599  function getCallDataDetails() external pure returns (... */\n      swap1\n      jump\t// out\n        /* \"contracts/Storage.sol\":666:780  function bytesToString(bytes memory data) public pure returns (string memory) {... */\n    tag_12:\n        /* \"contracts/Storage.sol\":729:742  string memory */\n      0x60\n        /* \"contracts/Storage.sol\":768:772  data */\n      dup2\n        /* \"contracts/Storage.sol\":754:773  return string(data) */\n      swap1\n      pop\n        /* \"contracts/Storage.sol\":666:780  function bytesToString(bytes memory data) public pure returns (string memory) {... */\n      swap2\n      swap1\n      pop\n      jump\t// out\n        /* \"#utility.yul\":7:105   */\n    tag_17:\n        /* \"#utility.yul\":58:64   */\n      0x00\n        /* \"#utility.yul\":92:97   */\n      dup2\n        /* \"#utility.yul\":86:98   */\n      mload\n        /* \"#utility.yul\":76:98   */\n      swap1\n      pop\n        /* \"#utility.yul\":7:105   */\n      swap2\n      swap1\n      pop\n      jump\t// out\n        /* \"#utility.yul\":111:279   */\n    tag_18:\n        /* \"#utility.yul\":194:205   */\n      0x00\n        /* \"#utility.yul\":228:234   */\n      dup3\n        /* \"#utility.yul\":223:226   */\n      dup3\n        /* \"#utility.yul\":216:235   */\n      mstore\n        /* \"#utility.yul\":268:272   */\n      0x20\n        /* \"#utility.yul\":263:266   */\n      dup3\n        /* \"#utility.yul\":259:273   */\n      add\n        /* \"#utility.yul\":244:273   */\n      swap1\n      pop\n        /* \"#utility.yul\":111:279   */\n      swap3\n      swap2\n      pop\n      pop\n      jump\t// out\n        /* \"#utility.yul\":285:424   */\n    tag_19:\n        /* \"#utility.yul\":374:380   */\n      dup3\n        /* \"#utility.yul\":369:372   */\n      dup2\n        /* \"#utility.yul\":364:367   */\n      dup4\n        /* \"#utility.yul\":358:381   */\n      mcopy\n        /* \"#utility.yul\":415:416   */\n      0x00\n        /* \"#utility.yul\":406:412   */\n      dup4\n        /* \"#utility.yul\":401:404   */\n      dup4\n        /* \"#utility.yul\":397:413   */\n      add\n        /* \"#utility.yul\":390:417   */\n      mstore\n        /* \"#utility.yul\":285:424   */\n      pop\n      pop\n      pop\n      jump\t// out\n        /* \"#utility.yul\":430:532   */\n    tag_20:\n        /* \"#utility.yul\":471:477   */\n      0x00\n        /* \"#utility.yul\":522:524   */\n      0x1f\n        /* \"#utility.yul\":518:525   */\n      not\n        /* \"#utility.yul\":513:515   */\n      0x1f\n        /* \"#utility.yul\":506:511   */\n      dup4\n        /* \"#utility.yul\":502:516   */\n      add\n        /* \"#utility.yul\":498:526   */\n      and\n        /* \"#utility.yul\":488:526   */\n      swap1\n      pop\n        /* \"#utility.yul\":430:532   */\n      swap2\n      swap1\n      pop\n      jump\t// out\n        /* \"#utility.yul\":538:911   */\n    tag_21:\n        /* \"#utility.yul\":624:627   */\n      0x00\n        /* \"#utility.yul\":652:690   */\n      tag_43\n        /* \"#utility.yul\":684:689   */\n      dup3\n        /* \"#utility.yul\":652:690   */\n      tag_17\n      jump\t// in\n    tag_43:\n        /* \"#utility.yul\":706:776   */\n      tag_44\n        /* \"#utility.yul\":769:775   */\n      dup2\n        /* \"#utility.yul\":764:767   */\n      dup6\n        /* \"#utility.yul\":706:776   */\n      tag_18\n      jump\t// in\n    tag_44:\n        /* \"#utility.yul\":699:776   */\n      swap4\n      pop\n        /* \"#utility.yul\":785:850   */\n      tag_45\n        /* \"#utility.yul\":843:849   */\n      dup2\n        /* \"#utility.yul\":838:841   */\n      dup6\n        /* \"#utility.yul\":831:835   */\n      0x20\n        /* \"#utility.yul\":824:829   */\n      dup7\n        /* \"#utility.yul\":820:836   */\n      add\n        /* \"#utility.yul\":785:850   */\n      tag_19\n      jump\t// in\n    tag_45:\n        /* \"#utility.yul\":875:904   */\n      tag_46\n        /* \"#utility.yul\":897:903   */\n      dup2\n        /* \"#utility.yul\":875:904   */\n      tag_20\n      jump\t// in\n    tag_46:\n        /* \"#utility.yul\":870:873   */\n      dup5\n        /* \"#utility.yul\":866:905   */\n      add\n        /* \"#utility.yul\":859:905   */\n      swap2\n      pop\n        /* \"#utility.yul\":628:911   */\n      pop\n        /* \"#utility.yul\":538:911   */\n      swap3\n      swap2\n      pop\n      pop\n      jump\t// out\n        /* \"#utility.yul\":917:1226   */\n    tag_8:\n        /* \"#utility.yul\":1028:1032   */\n      0x00\n        /* \"#utility.yul\":1066:1068   */\n      0x20\n        /* \"#utility.yul\":1055:1064   */\n      dup3\n        /* \"#utility.yul\":1051:1069   */\n      add\n        /* \"#utility.yul\":1043:1069   */\n      swap1\n      pop\n        /* \"#utility.yul\":1115:1124   */\n      dup2\n        /* \"#utility.yul\":1109:1113   */\n      dup2\n        /* \"#utility.yul\":1105:1125   */\n      sub\n        /* \"#utility.yul\":1101:1102   */\n      0x00\n        /* \"#utility.yul\":1090:1099   */\n      dup4\n        /* \"#utility.yul\":1086:1103   */\n      add\n        /* \"#utility.yul\":1079:1126   */\n      mstore\n        /* \"#utility.yul\":1143:1219   */\n      tag_48\n        /* \"#utility.yul\":1214:1218   */\n      dup2\n        /* \"#utility.yul\":1205:1211   */\n      dup5\n        /* \"#utility.yul\":1143:1219   */\n      tag_21\n      jump\t// in\n    tag_48:\n        /* \"#utility.yul\":1135:1219   */\n      swap1\n      pop\n        /* \"#utility.yul\":917:1226   */\n      swap3\n      swap2\n      pop\n      pop\n      jump\t// out\n        /* \"#utility.yul\":1232:1307   */\n    tag_22:\n        /* \"#utility.yul\":1265:1271   */\n      0x00\n        /* \"#utility.yul\":1298:1300   */\n      0x40\n        /* \"#utility.yul\":1292:1301   */\n      mload\n        /* \"#utility.yul\":1282:1301   */\n      swap1\n      pop\n        /* \"#utility.yul\":1232:1307   */\n      swap1\n      jump\t// out\n        /* \"#utility.yul\":1313:1430   */\n    tag_23:\n        /* \"#utility.yul\":1422:1423   */\n      0x00\n        /* \"#utility.yul\":1419:1420   */\n      dup1\n        /* \"#utility.yul\":1412:1424   */\n      revert\n        /* \"#utility.yul\":1436:1553   */\n    tag_24:\n        /* \"#utility.yul\":1545:1546   */\n      0x00\n        /* \"#utility.yul\":1542:1543   */\n      dup1\n        /* \"#utility.yul\":1535:1547   */\n      revert\n        /* \"#utility.yul\":1559:1676   */\n    tag_25:\n        /* \"#utility.yul\":1668:1669   */\n      0x00\n        /* \"#utility.yul\":1665:1666   */\n      dup1\n        /* \"#utility.yul\":1658:1670   */\n      revert\n        /* \"#utility.yul\":1682:1799   */\n    tag_26:\n        /* \"#utility.yul\":1791:1792   */\n      0x00\n        /* \"#utility.yul\":1788:1789   */\n      dup1\n        /* \"#utility.yul\":1781:1793   */\n      revert\n        /* \"#utility.yul\":1805:1985   */\n    tag_27:\n        /* \"#utility.yul\":1853:1930   */\n      0x4e487b7100000000000000000000000000000000000000000000000000000000\n        /* \"#utility.yul\":1850:1851   */\n      0x00\n        /* \"#utility.yul\":1843:1931   */\n      mstore\n        /* \"#utility.yul\":1950:1954   */\n      0x41\n        /* \"#utility.yul\":1947:1948   */\n      0x04\n        /* \"#utility.yul\":1940:1955   */\n      mstore\n        /* \"#utility.yul\":1974:1978   */\n      0x24\n        /* \"#utility.yul\":1971:1972   */\n      0x00\n        /* \"#utility.yul\":1964:1979   */\n      revert\n        /* \"#utility.yul\":1991:2272   */\n    tag_28:\n        /* \"#utility.yul\":2074:2101   */\n      tag_56\n        /* \"#utility.yul\":2096:2100   */\n      dup3\n        /* \"#utility.yul\":2074:2101   */\n      tag_20\n      jump\t// in\n    tag_56:\n        /* \"#utility.yul\":2066:2072   */\n      dup2\n        /* \"#utility.yul\":2062:2102   */\n      add\n        /* \"#utility.yul\":2204:2210   */\n      dup2\n        /* \"#utility.yul\":2192:2202   */\n      dup2\n        /* \"#utility.yul\":2189:2211   */\n      lt\n        /* \"#utility.yul\":2168:2186   */\n      0xffffffffffffffff\n        /* \"#utility.yul\":2156:2166   */\n      dup3\n        /* \"#utility.yul\":2153:2187   */\n      gt\n        /* \"#utility.yul\":2150:2212   */\n      or\n        /* \"#utility.yul\":2147:2235   */\n      iszero\n      tag_57\n      jumpi\n        /* \"#utility.yul\":2215:2233   */\n      tag_58\n      tag_27\n      jump\t// in\n    tag_58:\n        /* \"#utility.yul\":2147:2235   */\n    tag_57:\n        /* \"#utility.yul\":2255:2265   */\n      dup1\n        /* \"#utility.yul\":2251:2253   */\n      0x40\n        /* \"#utility.yul\":2244:2266   */\n      mstore\n        /* \"#utility.yul\":2034:2272   */\n      pop\n        /* \"#utility.yul\":1991:2272   */\n      pop\n      pop\n      jump\t// out\n        /* \"#utility.yul\":2278:2407   */\n    tag_29:\n        /* \"#utility.yul\":2312:2318   */\n      0x00\n        /* \"#utility.yul\":2339:2359   */\n      tag_60\n      tag_22\n      jump\t// in\n    tag_60:\n        /* \"#utility.yul\":2329:2359   */\n      swap1\n      pop\n        /* \"#utility.yul\":2368:2401   */\n      tag_61\n        /* \"#utility.yul\":2396:2400   */\n      dup3\n        /* \"#utility.yul\":2388:2394   */\n      dup3\n        /* \"#utility.yul\":2368:2401   */\n      tag_28\n      jump\t// in\n    tag_61:\n        /* \"#utility.yul\":2278:2407   */\n      swap2\n      swap1\n      pop\n      jump\t// out\n        /* \"#utility.yul\":2413:2720   */\n    tag_30:\n        /* \"#utility.yul\":2474:2478   */\n      0x00\n        /* \"#utility.yul\":2564:2582   */\n      0xffffffffffffffff\n        /* \"#utility.yul\":2556:2562   */\n      dup3\n        /* \"#utility.yul\":2553:2583   */\n      gt\n        /* \"#utility.yul\":2550:2606   */\n      iszero\n      tag_63\n      jumpi\n        /* \"#utility.yul\":2586:2604   */\n      tag_64\n      tag_27\n      jump\t// in\n    tag_64:\n        /* \"#utility.yul\":2550:2606   */\n    tag_63:\n        /* \"#utility.yul\":2624:2653   */\n      tag_65\n        /* \"#utility.yul\":2646:2652   */\n      dup3\n        /* \"#utility.yul\":2624:2653   */\n      tag_20\n      jump\t// in\n    tag_65:\n        /* \"#utility.yul\":2616:2653   */\n      swap1\n      pop\n        /* \"#utility.yul\":2708:2712   */\n      0x20\n        /* \"#utility.yul\":2702:2706   */\n      dup2\n        /* \"#utility.yul\":2698:2713   */\n      add\n        /* \"#utility.yul\":2690:2713   */\n      swap1\n      pop\n        /* \"#utility.yul\":2413:2720   */\n      swap2\n      swap1\n      pop\n      jump\t// out\n        /* \"#utility.yul\":2726:2874   */\n    tag_31:\n        /* \"#utility.yul\":2824:2830   */\n      dup3\n        /* \"#utility.yul\":2819:2822   */\n      dup2\n        /* \"#utility.yul\":2814:2817   */\n      dup4\n        /* \"#utility.yul\":2801:2831   */\n      calldatacopy\n        /* \"#utility.yul\":2865:2866   */\n      0x00\n        /* \"#utility.yul\":2856:2862   */\n      dup4\n        /* \"#utility.yul\":2851:2854   */\n      dup4\n        /* \"#utility.yul\":2847:2863   */\n      add\n        /* \"#utility.yul\":2840:2867   */\n      mstore\n        /* \"#utility.yul\":2726:2874   */\n      pop\n      pop\n      pop\n      jump\t// out\n        /* \"#utility.yul\":2880:3303   */\n    tag_32:\n        /* \"#utility.yul\":2957:2962   */\n      0x00\n        /* \"#utility.yul\":2982:3047   */\n      tag_68\n        /* \"#utility.yul\":2998:3046   */\n      tag_69\n        /* \"#utility.yul\":3039:3045   */\n      dup5\n        /* \"#utility.yul\":2998:3046   */\n      tag_30\n      jump\t// in\n    tag_69:\n        /* \"#utility.yul\":2982:3047   */\n      tag_29\n      jump\t// in\n    tag_68:\n        /* \"#utility.yul\":2973:3047   */\n      swap1\n      pop\n        /* \"#utility.yul\":3070:3076   */\n      dup3\n        /* \"#utility.yul\":3063:3068   */\n      dup2\n        /* \"#utility.yul\":3056:3077   */\n      mstore\n        /* \"#utility.yul\":3108:3112   */\n      0x20\n        /* \"#utility.yul\":3101:3106   */\n      dup2\n        /* \"#utility.yul\":3097:3113   */\n      add\n        /* \"#utility.yul\":3146:3149   */\n      dup5\n        /* \"#utility.yul\":3137:3143   */\n      dup5\n        /* \"#utility.yul\":3132:3135   */\n      dup5\n        /* \"#utility.yul\":3128:3144   */\n      add\n        /* \"#utility.yul\":3125:3150   */\n      gt\n        /* \"#utility.yul\":3122:3234   */\n      iszero\n      tag_70\n      jumpi\n        /* \"#utility.yul\":3153:3232   */\n      tag_71\n      tag_26\n      jump\t// in\n    tag_71:\n        /* \"#utility.yul\":3122:3234   */\n    tag_70:\n        /* \"#utility.yul\":3243:3297   */\n      tag_72\n        /* \"#utility.yul\":3290:3296   */\n      dup5\n        /* \"#utility.yul\":3285:3288   */\n      dup3\n        /* \"#utility.yul\":3280:3283   */\n      dup6\n        /* \"#utility.yul\":3243:3297   */\n      tag_31\n      jump\t// in\n    tag_72:\n        /* \"#utility.yul\":2963:3303   */\n      pop\n        /* \"#utility.yul\":2880:3303   */\n      swap4\n      swap3\n      pop\n      pop\n      pop\n      jump\t// out\n        /* \"#utility.yul\":3322:3660   */\n    tag_33:\n        /* \"#utility.yul\":3377:3382   */\n      0x00\n        /* \"#utility.yul\":3426:3429   */\n      dup3\n        /* \"#utility.yul\":3419:3423   */\n      0x1f\n        /* \"#utility.yul\":3411:3417   */\n      dup4\n        /* \"#utility.yul\":3407:3424   */\n      add\n        /* \"#utility.yul\":3403:3430   */\n      slt\n        /* \"#utility.yul\":3393:3515   */\n      tag_74\n      jumpi\n        /* \"#utility.yul\":3434:3513   */\n      tag_75\n      tag_25\n      jump\t// in\n    tag_75:\n        /* \"#utility.yul\":3393:3515   */\n    tag_74:\n        /* \"#utility.yul\":3551:3557   */\n      dup2\n        /* \"#utility.yul\":3538:3558   */\n      calldataload\n        /* \"#utility.yul\":3576:3654   */\n      tag_76\n        /* \"#utility.yul\":3650:3653   */\n      dup5\n        /* \"#utility.yul\":3642:3648   */\n      dup3\n        /* \"#utility.yul\":3635:3639   */\n      0x20\n        /* \"#utility.yul\":3627:3633   */\n      dup7\n        /* \"#utility.yul\":3623:3640   */\n      add\n        /* \"#utility.yul\":3576:3654   */\n      tag_32\n      jump\t// in\n    tag_76:\n        /* \"#utility.yul\":3567:3654   */\n      swap2\n      pop\n        /* \"#utility.yul\":3383:3660   */\n      pop\n        /* \"#utility.yul\":3322:3660   */\n      swap3\n      swap2\n      pop\n      pop\n      jump\t// out\n        /* \"#utility.yul\":3666:4173   */\n    tag_11:\n        /* \"#utility.yul\":3734:3740   */\n      0x00\n        /* \"#utility.yul\":3783:3785   */\n      0x20\n        /* \"#utility.yul\":3771:3780   */\n      dup3\n        /* \"#utility.yul\":3762:3769   */\n      dup5\n        /* \"#utility.yul\":3758:3781   */\n      sub\n        /* \"#utility.yul\":3754:3786   */\n      slt\n        /* \"#utility.yul\":3751:3870   */\n      iszero\n      tag_78\n      jumpi\n        /* \"#utility.yul\":3789:3868   */\n      tag_79\n      tag_23\n      jump\t// in\n    tag_79:\n        /* \"#utility.yul\":3751:3870   */\n    tag_78:\n        /* \"#utility.yul\":3937:3938   */\n      0x00\n        /* \"#utility.yul\":3926:3935   */\n      dup3\n        /* \"#utility.yul\":3922:3939   */\n      add\n        /* \"#utility.yul\":3909:3940   */\n      calldataload\n        /* \"#utility.yul\":3967:3985   */\n      0xffffffffffffffff\n        /* \"#utility.yul\":3959:3965   */\n      dup2\n        /* \"#utility.yul\":3956:3986   */\n      gt\n        /* \"#utility.yul\":3953:4070   */\n      iszero\n      tag_80\n      jumpi\n        /* \"#utility.yul\":3989:4068   */\n      tag_81\n      tag_24\n      jump\t// in\n    tag_81:\n        /* \"#utility.yul\":3953:4070   */\n    tag_80:\n        /* \"#utility.yul\":4094:4156   */\n      tag_82\n        /* \"#utility.yul\":4148:4155   */\n      dup5\n        /* \"#utility.yul\":4139:4145   */\n      dup3\n        /* \"#utility.yul\":4128:4137   */\n      dup6\n        /* \"#utility.yul\":4124:4146   */\n      add\n        /* \"#utility.yul\":4094:4156   */\n      tag_33\n      jump\t// in\n    tag_82:\n        /* \"#utility.yul\":4084:4156   */\n      swap2\n      pop\n        /* \"#utility.yul\":3880:4166   */\n      pop\n        /* \"#utility.yul\":3666:4173   */\n      swap3\n      swap2\n      pop\n      pop\n      jump\t// out\n        /* \"#utility.yul\":4179:4278   */\n    tag_34:\n        /* \"#utility.yul\":4231:4237   */\n      0x00\n        /* \"#utility.yul\":4265:4270   */\n      dup2\n        /* \"#utility.yul\":4259:4271   */\n      mload\n        /* \"#utility.yul\":4249:4271   */\n      swap1\n      pop\n        /* \"#utility.yul\":4179:4278   */\n      swap2\n      swap1\n      pop\n      jump\t// out\n        /* \"#utility.yul\":4284:4453   */\n    tag_35:\n        /* \"#utility.yul\":4368:4379   */\n      0x00\n        /* \"#utility.yul\":4402:4408   */\n      dup3\n        /* \"#utility.yul\":4397:4400   */\n      dup3\n        /* \"#utility.yul\":4390:4409   */\n      mstore\n        /* \"#utility.yul\":4442:4446   */\n      0x20\n        /* \"#utility.yul\":4437:4440   */\n      dup3\n        /* \"#utility.yul\":4433:4447   */\n      add\n        /* \"#utility.yul\":4418:4447   */\n      swap1\n      pop\n        /* \"#utility.yul\":4284:4453   */\n      swap3\n      swap2\n      pop\n      pop\n      jump\t// out\n        /* \"#utility.yul\":4459:4836   */\n    tag_36:\n        /* \"#utility.yul\":4547:4550   */\n      0x00\n        /* \"#utility.yul\":4575:4614   */\n      tag_86\n        /* \"#utility.yul\":4608:4613   */\n      dup3\n        /* \"#utility.yul\":4575:4614   */\n      tag_34\n      jump\t// in\n    tag_86:\n        /* \"#utility.yul\":4630:4701   */\n      tag_87\n        /* \"#utility.yul\":4694:4700   */\n      dup2\n        /* \"#utility.yul\":4689:4692   */\n      dup6\n        /* \"#utility.yul\":4630:4701   */\n      tag_35\n      jump\t// in\n    tag_87:\n        /* \"#utility.yul\":4623:4701   */\n      swap4\n      pop\n        /* \"#utility.yul\":4710:4775   */\n      tag_88\n        /* \"#utility.yul\":4768:4774   */\n      dup2\n        /* \"#utility.yul\":4763:4766   */\n      dup6\n        /* \"#utility.yul\":4756:4760   */\n      0x20\n        /* \"#utility.yul\":4749:4754   */\n      dup7\n        /* \"#utility.yul\":4745:4761   */\n      add\n        /* \"#utility.yul\":4710:4775   */\n      tag_19\n      jump\t// in\n    tag_88:\n        /* \"#utility.yul\":4800:4829   */\n      tag_89\n        /* \"#utility.yul\":4822:4828   */\n      dup2\n        /* \"#utility.yul\":4800:4829   */\n      tag_20\n      jump\t// in\n    tag_89:\n        /* \"#utility.yul\":4795:4798   */\n      dup5\n        /* \"#utility.yul\":4791:4830   */\n      add\n        /* \"#utility.yul\":4784:4830   */\n      swap2\n      pop\n        /* \"#utility.yul\":4551:4836   */\n      pop\n        /* \"#utility.yul\":4459:4836   */\n      swap3\n      swap2\n      pop\n      pop\n      jump\t// out\n        /* \"#utility.yul\":4842:5155   */\n    tag_14:\n        /* \"#utility.yul\":4955:4959   */\n      0x00\n        /* \"#utility.yul\":4993:4995   */\n      0x20\n        /* \"#utility.yul\":4982:4991   */\n      dup3\n        /* \"#utility.yul\":4978:4996   */\n      add\n        /* \"#utility.yul\":4970:4996   */\n      swap1\n      pop\n        /* \"#utility.yul\":5042:5051   */\n      dup2\n        /* \"#utility.yul\":5036:5040   */\n      dup2\n        /* \"#utility.yul\":5032:5052   */\n      sub\n        /* \"#utility.yul\":5028:5029   */\n      0x00\n        /* \"#utility.yul\":5017:5026   */\n      dup4\n        /* \"#utility.yul\":5013:5030   */\n      add\n        /* \"#utility.yul\":5006:5053   */\n      mstore\n        /* \"#utility.yul\":5070:5148   */\n      tag_91\n        /* \"#utility.yul\":5143:5147   */\n      dup2\n        /* \"#utility.yul\":5134:5140   */\n      dup5\n        /* \"#utility.yul\":5070:5148   */\n      tag_36\n      jump\t// in\n    tag_91:\n        /* \"#utility.yul\":5062:5148   */\n      swap1\n      pop\n        /* \"#utility.yul\":4842:5155   */\n      swap3\n      swap2\n      pop\n      pop\n      jump\t// out\n\n    auxdata: 0xa26469706673582212200eae57a3e77c954d0c72c781107b476062bb3451dd615a101eb79d84c6fb141864736f6c634300081a0033\n}\n",
				"bytecode": {
					"linkReferences": {},
					"object": "6080604052348015600e575f80fd5b506103978061001c5f395ff3fe608060405234801561000f575f80fd5b5060043610610034575f3560e01c80631532ee841461003857806339614e4f14610056575b5f80fd5b610040610086565b60405161004d919061014b565b60405180910390f35b610070600480360381019061006b91906102a8565b6100d1565b60405161007d9190610341565b60405180910390f35b60605f368080601f0160208091040260200160405190810160405280939291908181526020018383808284375f81840152601f19601f82011690508083019250505050505050905090565b6060819050919050565b5f81519050919050565b5f82825260208201905092915050565b8281835e5f83830152505050565b5f601f19601f8301169050919050565b5f61011d826100db565b61012781856100e5565b93506101378185602086016100f5565b61014081610103565b840191505092915050565b5f6020820190508181035f8301526101638184610113565b905092915050565b5f604051905090565b5f80fd5b5f80fd5b5f80fd5b5f80fd5b7f4e487b71000000000000000000000000000000000000000000000000000000005f52604160045260245ffd5b6101ba82610103565b810181811067ffffffffffffffff821117156101d9576101d8610184565b5b80604052505050565b5f6101eb61016b565b90506101f782826101b1565b919050565b5f67ffffffffffffffff82111561021657610215610184565b5b61021f82610103565b9050602081019050919050565b828183375f83830152505050565b5f61024c610247846101fc565b6101e2565b90508281526020810184848401111561026857610267610180565b5b61027384828561022c565b509392505050565b5f82601f83011261028f5761028e61017c565b5b813561029f84826020860161023a565b91505092915050565b5f602082840312156102bd576102bc610174565b5b5f82013567ffffffffffffffff8111156102da576102d9610178565b5b6102e68482850161027b565b91505092915050565b5f81519050919050565b5f82825260208201905092915050565b5f610313826102ef565b61031d81856102f9565b935061032d8185602086016100f5565b61033681610103565b840191505092915050565b5f6020820190508181035f8301526103598184610309565b90509291505056fea26469706673582212200eae57a3e77c954d0c72c781107b476062bb3451dd615a101eb79d84c6fb141864736f6c634300081a0033",
					"opcodes": "PUSH1 0x80 PUSH1 0x40 MSTORE CALLVALUE DUP1 ISZERO PUSH1 0xE JUMPI PUSH0 DUP1 REVERT JUMPDEST POP PUSH2 0x397 DUP1 PUSH2 0x1C PUSH0 CODECOPY PUSH0 RETURN INVALID PUSH1 0x80 PUSH1 0x40 MSTORE CALLVALUE DUP1 ISZERO PUSH2 0xF JUMPI PUSH0 DUP1 REVERT JUMPDEST POP PUSH1 0x4 CALLDATASIZE LT PUSH2 0x34 JUMPI PUSH0 CALLDATALOAD PUSH1 0xE0 SHR DUP1 PUSH4 0x1532EE84 EQ PUSH2 0x38 JUMPI DUP1 PUSH4 0x39614E4F EQ PUSH2 0x56 JUMPI JUMPDEST PUSH0 DUP1 REVERT JUMPDEST PUSH2 0x40 PUSH2 0x86 JUMP JUMPDEST PUSH1 0x40 MLOAD PUSH2 0x4D SWAP2 SWAP1 PUSH2 0x14B JUMP JUMPDEST PUSH1 0x40 MLOAD DUP1 SWAP2 SUB SWAP1 RETURN JUMPDEST PUSH2 0x70 PUSH1 0x4 DUP1 CALLDATASIZE SUB DUP2 ADD SWAP1 PUSH2 0x6B SWAP2 SWAP1 PUSH2 0x2A8 JUMP JUMPDEST PUSH2 0xD1 JUMP JUMPDEST PUSH1 0x40 MLOAD PUSH2 0x7D SWAP2 SWAP1 PUSH2 0x341 JUMP JUMPDEST PUSH1 0x40 MLOAD DUP1 SWAP2 SUB SWAP1 RETURN JUMPDEST PUSH1 0x60 PUSH0 CALLDATASIZE DUP1 DUP1 PUSH1 0x1F ADD PUSH1 0x20 DUP1 SWAP2 DIV MUL PUSH1 0x20 ADD PUSH1 0x40 MLOAD SWAP1 DUP2 ADD PUSH1 0x40 MSTORE DUP1 SWAP4 SWAP3 SWAP2 SWAP1 DUP2 DUP2 MSTORE PUSH1 0x20 ADD DUP4 DUP4 DUP1 DUP3 DUP5 CALLDATACOPY PUSH0 DUP2 DUP5 ADD MSTORE PUSH1 0x1F NOT PUSH1 0x1F DUP3 ADD AND SWAP1 POP DUP1 DUP4 ADD SWAP3 POP POP POP POP POP POP POP SWAP1 POP SWAP1 JUMP JUMPDEST PUSH1 0x60 DUP2 SWAP1 POP SWAP2 SWAP1 POP JUMP JUMPDEST PUSH0 DUP2 MLOAD SWAP1 POP SWAP2 SWAP1 POP JUMP JUMPDEST PUSH0 DUP3 DUP3 MSTORE PUSH1 0x20 DUP3 ADD SWAP1 POP SWAP3 SWAP2 POP POP JUMP JUMPDEST DUP3 DUP2 DUP4 MCOPY PUSH0 DUP4 DUP4 ADD MSTORE POP POP POP JUMP JUMPDEST PUSH0 PUSH1 0x1F NOT PUSH1 0x1F DUP4 ADD AND SWAP1 POP SWAP2 SWAP1 POP JUMP JUMPDEST PUSH0 PUSH2 0x11D DUP3 PUSH2 0xDB JUMP JUMPDEST PUSH2 0x127 DUP2 DUP6 PUSH2 0xE5 JUMP JUMPDEST SWAP4 POP PUSH2 0x137 DUP2 DUP6 PUSH1 0x20 DUP7 ADD PUSH2 0xF5 JUMP JUMPDEST PUSH2 0x140 DUP2 PUSH2 0x103 JUMP JUMPDEST DUP5 ADD SWAP2 POP POP SWAP3 SWAP2 POP POP JUMP JUMPDEST PUSH0 PUSH1 0x20 DUP3 ADD SWAP1 POP DUP2 DUP2 SUB PUSH0 DUP4 ADD MSTORE PUSH2 0x163 DUP2 DUP5 PUSH2 0x113 JUMP JUMPDEST SWAP1 POP SWAP3 SWAP2 POP POP JUMP JUMPDEST PUSH0 PUSH1 0x40 MLOAD SWAP1 POP SWAP1 JUMP JUMPDEST PUSH0 DUP1 REVERT JUMPDEST PUSH0 DUP1 REVERT JUMPDEST PUSH0 DUP1 REVERT JUMPDEST PUSH0 DUP1 REVERT JUMPDEST PUSH32 0x4E487B7100000000000000000000000000000000000000000000000000000000 PUSH0 MSTORE PUSH1 0x41 PUSH1 0x4 MSTORE PUSH1 0x24 PUSH0 REVERT JUMPDEST PUSH2 0x1BA DUP3 PUSH2 0x103 JUMP JUMPDEST DUP2 ADD DUP2 DUP2 LT PUSH8 0xFFFFFFFFFFFFFFFF DUP3 GT OR ISZERO PUSH2 0x1D9 JUMPI PUSH2 0x1D8 PUSH2 0x184 JUMP JUMPDEST JUMPDEST DUP1 PUSH1 0x40 MSTORE POP POP POP JUMP JUMPDEST PUSH0 PUSH2 0x1EB PUSH2 0x16B JUMP JUMPDEST SWAP1 POP PUSH2 0x1F7 DUP3 DUP3 PUSH2 0x1B1 JUMP JUMPDEST SWAP2 SWAP1 POP JUMP JUMPDEST PUSH0 PUSH8 0xFFFFFFFFFFFFFFFF DUP3 GT ISZERO PUSH2 0x216 JUMPI PUSH2 0x215 PUSH2 0x184 JUMP JUMPDEST JUMPDEST PUSH2 0x21F DUP3 PUSH2 0x103 JUMP JUMPDEST SWAP1 POP PUSH1 0x20 DUP2 ADD SWAP1 POP SWAP2 SWAP1 POP JUMP JUMPDEST DUP3 DUP2 DUP4 CALLDATACOPY PUSH0 DUP4 DUP4 ADD MSTORE POP POP POP JUMP JUMPDEST PUSH0 PUSH2 0x24C PUSH2 0x247 DUP5 PUSH2 0x1FC JUMP JUMPDEST PUSH2 0x1E2 JUMP JUMPDEST SWAP1 POP DUP3 DUP2 MSTORE PUSH1 0x20 DUP2 ADD DUP5 DUP5 DUP5 ADD GT ISZERO PUSH2 0x268 JUMPI PUSH2 0x267 PUSH2 0x180 JUMP JUMPDEST JUMPDEST PUSH2 0x273 DUP5 DUP3 DUP6 PUSH2 0x22C JUMP JUMPDEST POP SWAP4 SWAP3 POP POP POP JUMP JUMPDEST PUSH0 DUP3 PUSH1 0x1F DUP4 ADD SLT PUSH2 0x28F JUMPI PUSH2 0x28E PUSH2 0x17C JUMP JUMPDEST JUMPDEST DUP2 CALLDATALOAD PUSH2 0x29F DUP5 DUP3 PUSH1 0x20 DUP7 ADD PUSH2 0x23A JUMP JUMPDEST SWAP2 POP POP SWAP3 SWAP2 POP POP JUMP JUMPDEST PUSH0 PUSH1 0x20 DUP3 DUP5 SUB SLT ISZERO PUSH2 0x2BD JUMPI PUSH2 0x2BC PUSH2 0x174 JUMP JUMPDEST JUMPDEST PUSH0 DUP3 ADD CALLDATALOAD PUSH8 0xFFFFFFFFFFFFFFFF DUP2 GT ISZERO PUSH2 0x2DA JUMPI PUSH2 0x2D9 PUSH2 0x178 JUMP JUMPDEST JUMPDEST PUSH2 0x2E6 DUP5 DUP3 DUP6 ADD PUSH2 0x27B JUMP JUMPDEST SWAP2 POP POP SWAP3 SWAP2 POP POP JUMP JUMPDEST PUSH0 DUP2 MLOAD SWAP1 POP SWAP2 SWAP1 POP JUMP JUMPDEST PUSH0 DUP3 DUP3 MSTORE PUSH1 0x20 DUP3 ADD SWAP1 POP SWAP3 SWAP2 POP POP JUMP JUMPDEST PUSH0 PUSH2 0x313 DUP3 PUSH2 0x2EF JUMP JUMPDEST PUSH2 0x31D DUP2 DUP6 PUSH2 0x2F9 JUMP JUMPDEST SWAP4 POP PUSH2 0x32D DUP2 DUP6 PUSH1 0x20 DUP7 ADD PUSH2 0xF5 JUMP JUMPDEST PUSH2 0x336 DUP2 PUSH2 0x103 JUMP JUMPDEST DUP5 ADD SWAP2 POP POP SWAP3 SWAP2 POP POP JUMP JUMPDEST PUSH0 PUSH1 0x20 DUP3 ADD SWAP1 POP DUP2 DUP2 SUB PUSH0 DUP4 ADD MSTORE PUSH2 0x359 DUP2 DUP5 PUSH2 0x309 JUMP JUMPDEST SWAP1 POP SWAP3 SWAP2 POP POP JUMP INVALID LOG2 PUSH5 0x6970667358 0x22 SLT KECCAK256 0xE 0xAE JUMPI LOG3 0xE7 PUSH29 0x954D0C72C781107B476062BB3451DD615A101EB79D84C6FB141864736F PUSH13 0x634300081A0033000000000000 "
				},
				"gasEstimates": {
					"creation": {
						"codeDepositCost": "183800",
						"executionCost": "224",
						"totalCost": "184024"
					},
					"external": {
						"bytesToString(bytes)": "infinite",
						"getCallDataDetails()": "infinite"
					}
				},
				"methodIdentifiers": {
					"bytesToString(bytes)": "39614e4f",
					"getCallDataDetails()": "1532ee84"
				}
			},
			"storageLayout": {
				"storage": [],
				"types": null
			},
			"userdoc": {
				"kind": "user",
				"methods": {},
				"version": 1
			}
		}
	}
}